{
  "_format": "hh-sol-artifact-1",
  "contractName": "MagicCoin",
  "sourceName": "contracts/MagicCoin.sol",
  "abi": [
    {
      "inputs": [],
      "stateMutability": "nonpayable",
      "type": "constructor"
    },
    {
      "anonymous": false,
      "inputs": [
        {
          "indexed": true,
          "internalType": "address",
          "name": "owner",
          "type": "address"
        },
        {
          "indexed": true,
          "internalType": "address",
          "name": "spender",
          "type": "address"
        },
        {
          "indexed": false,
          "internalType": "uint256",
          "name": "value",
          "type": "uint256"
        }
      ],
      "name": "Approval",
      "type": "event"
    },
    {
      "anonymous": false,
      "inputs": [
        {
          "indexed": true,
          "internalType": "address",
          "name": "previousOwner",
          "type": "address"
        },
        {
          "indexed": true,
          "internalType": "address",
          "name": "newOwner",
          "type": "address"
        }
      ],
      "name": "OwnershipTransferred",
      "type": "event"
    },
    {
      "anonymous": false,
      "inputs": [
        {
          "indexed": true,
          "internalType": "address",
          "name": "from",
          "type": "address"
        },
        {
          "indexed": true,
          "internalType": "address",
          "name": "to",
          "type": "address"
        },
        {
          "indexed": false,
          "internalType": "uint256",
          "name": "value",
          "type": "uint256"
        }
      ],
      "name": "Transfer",
      "type": "event"
    },
    {
      "anonymous": false,
      "inputs": [
        {
          "indexed": true,
          "internalType": "address",
          "name": "owner",
          "type": "address"
        },
        {
          "indexed": false,
          "internalType": "uint256",
          "name": "amount",
          "type": "uint256"
        },
        {
          "indexed": false,
          "internalType": "string",
          "name": "message",
          "type": "string"
        }
      ],
      "name": "additionalTokensMinted",
      "type": "event"
    },
    {
      "anonymous": false,
      "inputs": [
        {
          "indexed": true,
          "internalType": "address",
          "name": "owner",
          "type": "address"
        },
        {
          "indexed": false,
          "internalType": "uint256",
          "name": "amount",
          "type": "uint256"
        },
        {
          "indexed": false,
          "internalType": "string",
          "name": "message",
          "type": "string"
        }
      ],
      "name": "tokenRequested",
      "type": "event"
    },
    {
      "anonymous": false,
      "inputs": [
        {
          "indexed": true,
          "internalType": "address",
          "name": "owner",
          "type": "address"
        },
        {
          "indexed": false,
          "internalType": "uint256",
          "name": "amount",
          "type": "uint256"
        },
        {
          "indexed": false,
          "internalType": "string",
          "name": "message",
          "type": "string"
        }
      ],
      "name": "tokensBurned",
      "type": "event"
    },
    {
      "anonymous": false,
      "inputs": [
        {
          "indexed": true,
          "internalType": "address",
          "name": "owner",
          "type": "address"
        },
        {
          "indexed": false,
          "internalType": "uint256",
          "name": "amount",
          "type": "uint256"
        },
        {
          "indexed": false,
          "internalType": "string",
          "name": "message",
          "type": "string"
        }
      ],
      "name": "tokensMinted",
      "type": "event"
    },
    {
      "inputs": [
        {
          "internalType": "address",
          "name": "owner",
          "type": "address"
        },
        {
          "internalType": "address",
          "name": "spender",
          "type": "address"
        }
      ],
      "name": "allowance",
      "outputs": [
        {
          "internalType": "uint256",
          "name": "",
          "type": "uint256"
        }
      ],
      "stateMutability": "view",
      "type": "function"
    },
    {
      "inputs": [
        {
          "internalType": "address",
          "name": "spender",
          "type": "address"
        },
        {
          "internalType": "uint256",
          "name": "amount",
          "type": "uint256"
        }
      ],
      "name": "approve",
      "outputs": [
        {
          "internalType": "bool",
          "name": "",
          "type": "bool"
        }
      ],
      "stateMutability": "nonpayable",
      "type": "function"
    },
    {
      "inputs": [
        {
          "internalType": "address",
          "name": "account",
          "type": "address"
        }
      ],
      "name": "balanceOf",
      "outputs": [
        {
          "internalType": "uint256",
          "name": "",
          "type": "uint256"
        }
      ],
      "stateMutability": "view",
      "type": "function"
    },
    {
      "inputs": [
        {
          "internalType": "uint256",
          "name": "amount",
          "type": "uint256"
        }
      ],
      "name": "burn",
      "outputs": [],
      "stateMutability": "nonpayable",
      "type": "function"
    },
    {
      "inputs": [
        {
          "internalType": "address",
          "name": "account",
          "type": "address"
        },
        {
          "internalType": "uint256",
          "name": "amount",
          "type": "uint256"
        }
      ],
      "name": "burnFrom",
      "outputs": [],
      "stateMutability": "nonpayable",
      "type": "function"
    },
    {
      "inputs": [],
      "name": "decimals",
      "outputs": [
        {
          "internalType": "uint8",
          "name": "",
          "type": "uint8"
        }
      ],
      "stateMutability": "view",
      "type": "function"
    },
    {
      "inputs": [
        {
          "internalType": "address",
          "name": "spender",
          "type": "address"
        },
        {
          "internalType": "uint256",
          "name": "subtractedValue",
          "type": "uint256"
        }
      ],
      "name": "decreaseAllowance",
      "outputs": [
        {
          "internalType": "bool",
          "name": "",
          "type": "bool"
        }
      ],
      "stateMutability": "nonpayable",
      "type": "function"
    },
    {
      "inputs": [
        {
          "internalType": "address",
          "name": "_to",
          "type": "address"
        },
        {
          "internalType": "uint256",
          "name": "_amount",
          "type": "uint256"
        }
      ],
      "name": "getMagicCoin",
      "outputs": [],
      "stateMutability": "nonpayable",
      "type": "function"
    },
    {
      "inputs": [
        {
          "internalType": "address",
          "name": "spender",
          "type": "address"
        },
        {
          "internalType": "uint256",
          "name": "addedValue",
          "type": "uint256"
        }
      ],
      "name": "increaseAllowance",
      "outputs": [
        {
          "internalType": "bool",
          "name": "",
          "type": "bool"
        }
      ],
      "stateMutability": "nonpayable",
      "type": "function"
    },
    {
      "inputs": [
        {
          "internalType": "address",
          "name": "to",
          "type": "address"
        },
        {
          "internalType": "uint256",
          "name": "amount",
          "type": "uint256"
        }
      ],
      "name": "mint",
      "outputs": [],
      "stateMutability": "nonpayable",
      "type": "function"
    },
    {
      "inputs": [],
      "name": "myTokenBalance",
      "outputs": [
        {
          "internalType": "uint256",
          "name": "",
          "type": "uint256"
        }
      ],
      "stateMutability": "view",
      "type": "function"
    },
    {
      "inputs": [],
      "name": "name",
      "outputs": [
        {
          "internalType": "string",
          "name": "",
          "type": "string"
        }
      ],
      "stateMutability": "view",
      "type": "function"
    },
    {
      "inputs": [],
      "name": "owner",
      "outputs": [
        {
          "internalType": "address",
          "name": "",
          "type": "address"
        }
      ],
      "stateMutability": "view",
      "type": "function"
    },
    {
      "inputs": [],
      "name": "renounceOwnership",
      "outputs": [],
      "stateMutability": "nonpayable",
      "type": "function"
    },
    {
      "inputs": [],
      "name": "symbol",
      "outputs": [
        {
          "internalType": "string",
          "name": "",
          "type": "string"
        }
      ],
      "stateMutability": "view",
      "type": "function"
    },
    {
      "inputs": [],
      "name": "totalSupply",
      "outputs": [
        {
          "internalType": "uint256",
          "name": "",
          "type": "uint256"
        }
      ],
      "stateMutability": "view",
      "type": "function"
    },
    {
      "inputs": [
        {
          "internalType": "address",
          "name": "to",
          "type": "address"
        },
        {
          "internalType": "uint256",
          "name": "amount",
          "type": "uint256"
        }
      ],
      "name": "transfer",
      "outputs": [
        {
          "internalType": "bool",
          "name": "",
          "type": "bool"
        }
      ],
      "stateMutability": "nonpayable",
      "type": "function"
    },
    {
      "inputs": [
        {
          "internalType": "address",
          "name": "from",
          "type": "address"
        },
        {
          "internalType": "address",
          "name": "to",
          "type": "address"
        },
        {
          "internalType": "uint256",
          "name": "amount",
          "type": "uint256"
        }
      ],
      "name": "transferFrom",
      "outputs": [
        {
          "internalType": "bool",
          "name": "",
          "type": "bool"
        }
      ],
      "stateMutability": "nonpayable",
      "type": "function"
    },
    {
      "inputs": [
        {
          "internalType": "address",
          "name": "newOwner",
          "type": "address"
        }
      ],
      "name": "transferOwnership",
      "outputs": [],
      "stateMutability": "nonpayable",
      "type": "function"
    }
  ],
  "bytecode": "0x60806040523480156200001157600080fd5b506040518060400160405280600981526020017f4d61676963436f696e00000000000000000000000000000000000000000000008152506040518060400160405280600381526020017f4d47430000000000000000000000000000000000000000000000000000000000815250816003908051906020019062000096929190620003c2565b508060049080519060200190620000af929190620003c2565b505050620000d2620000c66200016860201b60201c565b6200017060201b60201c565b620000e6336101f46200023660201b60201c565b3373ffffffffffffffffffffffffffffffffffffffff167f8d54cf4376f9d10619fbb6aded215dcdffc1b80415e0750f5064018278632d076200012e620003af60201b60201c565b600a6200013c919062000641565b6103e86200014b91906200077e565b6040516200015a919062000546565b60405180910390a262000897565b600033905090565b6000600560009054906101000a900473ffffffffffffffffffffffffffffffffffffffff16905081600560006101000a81548173ffffffffffffffffffffffffffffffffffffffff021916908373ffffffffffffffffffffffffffffffffffffffff1602179055508173ffffffffffffffffffffffffffffffffffffffff168173ffffffffffffffffffffffffffffffffffffffff167f8be0079c531659141344cd1fd0a4f28419497f9722a3daafe3b4186f6b6457e060405160405180910390a35050565b600073ffffffffffffffffffffffffffffffffffffffff168273ffffffffffffffffffffffffffffffffffffffff161415620002a9576040517f08c379a0000000000000000000000000000000000000000000000000000000008152600401620002a09062000507565b60405180910390fd5b620002bd60008383620003b860201b60201c565b8060026000828254620002d1919062000589565b92505081905550806000808473ffffffffffffffffffffffffffffffffffffffff1673ffffffffffffffffffffffffffffffffffffffff168152602001908152602001600020600082825462000328919062000589565b925050819055508173ffffffffffffffffffffffffffffffffffffffff16600073ffffffffffffffffffffffffffffffffffffffff167fddf252ad1be2c89b69c2b068fc378daa952ba7f163c4a11628f55a4df523b3ef836040516200038f919062000529565b60405180910390a3620003ab60008383620003bd60201b60201c565b5050565b60006012905090565b505050565b505050565b828054620003d090620007f6565b90600052602060002090601f016020900481019282620003f4576000855562000440565b82601f106200040f57805160ff191683800117855562000440565b8280016001018555821562000440579182015b828111156200043f57825182559160200191906001019062000422565b5b5090506200044f919062000453565b5090565b5b808211156200046e57600081600090555060010162000454565b5090565b60006200048160208362000578565b91507f496e697469616c20737570706c79206f6620746f6b656e73206d696e7465642e6000830152602082019050919050565b6000620004c3601f8362000578565b91507f45524332303a206d696e7420746f20746865207a65726f2061646472657373006000830152602082019050919050565b6200050181620007df565b82525050565b600060208201905081810360008301526200052281620004b4565b9050919050565b6000602082019050620005406000830184620004f6565b92915050565b60006040820190506200055d6000830184620004f6565b8181036020830152620005708162000472565b905092915050565b600082825260208201905092915050565b60006200059682620007df565b9150620005a383620007df565b9250827fffffffffffffffffffffffffffffffffffffffffffffffffffffffffffffffff03821115620005db57620005da6200082c565b5b828201905092915050565b6000808291508390505b6001851115620006385780860481111562000610576200060f6200082c565b5b6001851615620006205780820291505b808102905062000630856200088a565b9450620005f0565b94509492505050565b60006200064e82620007df565b91506200065b83620007e9565b92506200068a7fffffffffffffffffffffffffffffffffffffffffffffffffffffffffffffffff848462000692565b905092915050565b600082620006a4576001905062000777565b81620006b4576000905062000777565b8160018114620006cd5760028114620006d8576200070e565b600191505062000777565b60ff841115620006ed57620006ec6200082c565b5b8360020a9150848211156200070757620007066200082c565b5b5062000777565b5060208310610133831016604e8410600b8410161715620007485782820a9050838111156200074257620007416200082c565b5b62000777565b620007578484846001620005e6565b925090508184048111156200077157620007706200082c565b5b81810290505b9392505050565b60006200078b82620007df565b91506200079883620007df565b9250817fffffffffffffffffffffffffffffffffffffffffffffffffffffffffffffffff0483118215151615620007d457620007d36200082c565b5b828202905092915050565b6000819050919050565b600060ff82169050919050565b600060028204905060018216806200080f57607f821691505b602082108114156200082657620008256200085b565b5b50919050565b7f4e487b7100000000000000000000000000000000000000000000000000000000600052601160045260246000fd5b7f4e487b7100000000000000000000000000000000000000000000000000000000600052602260045260246000fd5b60008160011c9050919050565b6120ef80620008a76000396000f3fe608060405234801561001057600080fd5b50600436106101215760003560e01c80635e6ba549116100ad57806395d89b411161007157806395d89b41146102f6578063a457c2d714610314578063a9059cbb14610344578063dd62ed3e14610374578063f2fde38b146103a457610121565b80635e6ba5491461026457806370a0823114610282578063715018a6146102b257806379cc6790146102bc5780638da5cb5b146102d857610121565b806323b872dd116100f457806323b872dd146101ae578063313ce567146101de57806339509351146101fc57806340c10f191461022c57806342966c681461024857610121565b806306fdde0314610126578063083315aa14610144578063095ea7b31461016057806318160ddd14610190575b600080fd5b61012e6103c0565b60405161013b9190611a62565b60405180910390f35b61015e600480360381019061015991906113d6565b610452565b005b61017a600480360381019061017591906113d6565b610543565b6040516101879190611a47565b60405180910390f35b610198610566565b6040516101a59190611c24565b60405180910390f35b6101c860048036038101906101c39190611387565b610570565b6040516101d59190611a47565b60405180910390f35b6101e661059f565b6040516101f39190611cc9565b60405180910390f35b610216600480360381019061021191906113d6565b6105a8565b6040516102239190611a47565b60405180910390f35b610246600480360381019061024191906113d6565b6105df565b005b610262600480360381019061025d9190611412565b610643565b005b61026c6106a6565b6040516102799190611c24565b60405180910390f35b61029c60048036038101906102979190611322565b6106b6565b6040516102a99190611c24565b60405180910390f35b6102ba6106fe565b005b6102d660048036038101906102d191906113d6565b610712565b005b6102e0610732565b6040516102ed9190611a2c565b60405180910390f35b6102fe61075c565b60405161030b9190611a62565b60405180910390f35b61032e600480360381019061032991906113d6565b6107ee565b60405161033b9190611a47565b60405180910390f35b61035e600480360381019061035991906113d6565b610865565b60405161036b9190611a47565b60405180910390f35b61038e6004803603810190610389919061134b565b610888565b60405161039b9190611c24565b60405180910390f35b6103be60048036038101906103b99190611322565b61090f565b005b6060600380546103cf90611fdd565b80601f01602080910402602001604051908101604052809291908181526020018280546103fb90611fdd565b80156104485780601f1061041d57610100808354040283529160200191610448565b820191906000526020600020905b81548152906001019060200180831161042b57829003601f168201915b5050505050905090565b8061046361045e610732565b6106b6565b101561049b5761049a610474610732565b61047c61059f565b600a6104889190611da9565b6101f46104959190611ec7565b610993565b5b60148111156104df576040517f08c379a00000000000000000000000000000000000000000000000000000000081526004016104d690611aa4565b60405180910390fd5b6104f16104ea610732565b8383610af3565b3373ffffffffffffffffffffffffffffffffffffffff167f106ca50b5a6474402bbf91f8d0e2a7bccca10ad5f5544ffdf72d54c1cd17444b826040516105379190611c3f565b60405180910390a25050565b60008061054e610d74565b905061055b818585610d7c565b600191505092915050565b6000600254905090565b60008061057b610d74565b9050610588858285610f47565b610593858585610af3565b60019150509392505050565b60006012905090565b6000806105b3610d74565b90506105d48185856105c58589610888565b6105cf9190611d00565b610d7c565b600191505092915050565b6105e7610fd3565b6105f18282610993565b3373ffffffffffffffffffffffffffffffffffffffff167fc31b604bce0888a4f5e36e76eee33516a5fff7a5d58ac7dcead8174c323eebf2826040516106379190611c9b565b60405180910390a25050565b61064b610fd3565b6106553382611051565b3373ffffffffffffffffffffffffffffffffffffffff167fcde716650b13ae41f235d679e62500d67355bc41802e6cfc087b67a7850d975f8260405161069b9190611c6d565b60405180910390a250565b60006106b1336106b6565b905090565b60008060008373ffffffffffffffffffffffffffffffffffffffff1673ffffffffffffffffffffffffffffffffffffffff168152602001908152602001600020549050919050565b610706610fd3565b6107106000611228565b565b6107248261071e610d74565b83610f47565b61072e8282611051565b5050565b6000600560009054906101000a900473ffffffffffffffffffffffffffffffffffffffff16905090565b60606004805461076b90611fdd565b80601f016020809104026020016040519081016040528092919081815260200182805461079790611fdd565b80156107e45780601f106107b9576101008083540402835291602001916107e4565b820191906000526020600020905b8154815290600101906020018083116107c757829003601f168201915b5050505050905090565b6000806107f9610d74565b905060006108078286610888565b90508381101561084c576040517f08c379a000000000000000000000000000000000000000000000000000000000815260040161084390611be4565b60405180910390fd5b6108598286868403610d7c565b60019250505092915050565b600080610870610d74565b905061087d818585610af3565b600191505092915050565b6000600160008473ffffffffffffffffffffffffffffffffffffffff1673ffffffffffffffffffffffffffffffffffffffff16815260200190815260200160002060008373ffffffffffffffffffffffffffffffffffffffff1673ffffffffffffffffffffffffffffffffffffffff16815260200190815260200160002054905092915050565b610917610fd3565b600073ffffffffffffffffffffffffffffffffffffffff168173ffffffffffffffffffffffffffffffffffffffff161415610987576040517f08c379a000000000000000000000000000000000000000000000000000000000815260040161097e90611ae4565b60405180910390fd5b61099081611228565b50565b600073ffffffffffffffffffffffffffffffffffffffff168273ffffffffffffffffffffffffffffffffffffffff161415610a03576040517f08c379a00000000000000000000000000000000000000000000000000000000081526004016109fa90611c04565b60405180910390fd5b610a0f600083836112ee565b8060026000828254610a219190611d00565b92505081905550806000808473ffffffffffffffffffffffffffffffffffffffff1673ffffffffffffffffffffffffffffffffffffffff1681526020019081526020016000206000828254610a769190611d00565b925050819055508173ffffffffffffffffffffffffffffffffffffffff16600073ffffffffffffffffffffffffffffffffffffffff167fddf252ad1be2c89b69c2b068fc378daa952ba7f163c4a11628f55a4df523b3ef83604051610adb9190611c24565b60405180910390a3610aef600083836112f3565b5050565b600073ffffffffffffffffffffffffffffffffffffffff168373ffffffffffffffffffffffffffffffffffffffff161415610b63576040517f08c379a0000000000000000000000000000000000000000000000000000000008152600401610b5a90611ba4565b60405180910390fd5b600073ffffffffffffffffffffffffffffffffffffffff168273ffffffffffffffffffffffffffffffffffffffff161415610bd3576040517f08c379a0000000000000000000000000000000000000000000000000000000008152600401610bca90611a84565b60405180910390fd5b610bde8383836112ee565b60008060008573ffffffffffffffffffffffffffffffffffffffff1673ffffffffffffffffffffffffffffffffffffffff16815260200190815260200160002054905081811015610c64576040517f08c379a0000000000000000000000000000000000000000000000000000000008152600401610c5b90611b44565b60405180910390fd5b8181036000808673ffffffffffffffffffffffffffffffffffffffff1673ffffffffffffffffffffffffffffffffffffffff16815260200190815260200160002081905550816000808573ffffffffffffffffffffffffffffffffffffffff1673ffffffffffffffffffffffffffffffffffffffff1681526020019081526020016000206000828254610cf79190611d00565b925050819055508273ffffffffffffffffffffffffffffffffffffffff168473ffffffffffffffffffffffffffffffffffffffff167fddf252ad1be2c89b69c2b068fc378daa952ba7f163c4a11628f55a4df523b3ef84604051610d5b9190611c24565b60405180910390a3610d6e8484846112f3565b50505050565b600033905090565b600073ffffffffffffffffffffffffffffffffffffffff168373ffffffffffffffffffffffffffffffffffffffff161415610dec576040517f08c379a0000000000000000000000000000000000000000000000000000000008152600401610de390611bc4565b60405180910390fd5b600073ffffffffffffffffffffffffffffffffffffffff168273ffffffffffffffffffffffffffffffffffffffff161415610e5c576040517f08c379a0000000000000000000000000000000000000000000000000000000008152600401610e5390611b04565b60405180910390fd5b80600160008573ffffffffffffffffffffffffffffffffffffffff1673ffffffffffffffffffffffffffffffffffffffff16815260200190815260200160002060008473ffffffffffffffffffffffffffffffffffffffff1673ffffffffffffffffffffffffffffffffffffffff168152602001908152602001600020819055508173ffffffffffffffffffffffffffffffffffffffff168373ffffffffffffffffffffffffffffffffffffffff167f8c5be1e5ebec7d5bd14f71427d1e84f3dd0314c0f7b2291e5b200ac8c7c3b92583604051610f3a9190611c24565b60405180910390a3505050565b6000610f538484610888565b90507fffffffffffffffffffffffffffffffffffffffffffffffffffffffffffffffff8114610fcd5781811015610fbf576040517f08c379a0000000000000000000000000000000000000000000000000000000008152600401610fb690611b24565b60405180910390fd5b610fcc8484848403610d7c565b5b50505050565b610fdb610d74565b73ffffffffffffffffffffffffffffffffffffffff16610ff9610732565b73ffffffffffffffffffffffffffffffffffffffff161461104f576040517f08c379a000000000000000000000000000000000000000000000000000000000815260040161104690611b64565b60405180910390fd5b565b600073ffffffffffffffffffffffffffffffffffffffff168273ffffffffffffffffffffffffffffffffffffffff1614156110c1576040517f08c379a00000000000000000000000000000000000000000000000000000000081526004016110b890611b84565b60405180910390fd5b6110cd826000836112ee565b60008060008473ffffffffffffffffffffffffffffffffffffffff1673ffffffffffffffffffffffffffffffffffffffff16815260200190815260200160002054905081811015611153576040517f08c379a000000000000000000000000000000000000000000000000000000000815260040161114a90611ac4565b60405180910390fd5b8181036000808573ffffffffffffffffffffffffffffffffffffffff1673ffffffffffffffffffffffffffffffffffffffff1681526020019081526020016000208190555081600260008282546111aa9190611f21565b92505081905550600073ffffffffffffffffffffffffffffffffffffffff168373ffffffffffffffffffffffffffffffffffffffff167fddf252ad1be2c89b69c2b068fc378daa952ba7f163c4a11628f55a4df523b3ef8460405161120f9190611c24565b60405180910390a3611223836000846112f3565b505050565b6000600560009054906101000a900473ffffffffffffffffffffffffffffffffffffffff16905081600560006101000a81548173ffffffffffffffffffffffffffffffffffffffff021916908373ffffffffffffffffffffffffffffffffffffffff1602179055508173ffffffffffffffffffffffffffffffffffffffff168173ffffffffffffffffffffffffffffffffffffffff167f8be0079c531659141344cd1fd0a4f28419497f9722a3daafe3b4186f6b6457e060405160405180910390a35050565b505050565b505050565b6000813590506113078161208b565b92915050565b60008135905061131c816120a2565b92915050565b60006020828403121561133457600080fd5b6000611342848285016112f8565b91505092915050565b6000806040838503121561135e57600080fd5b600061136c858286016112f8565b925050602061137d858286016112f8565b9150509250929050565b60008060006060848603121561139c57600080fd5b60006113aa868287016112f8565b93505060206113bb868287016112f8565b92505060406113cc8682870161130d565b9150509250925092565b600080604083850312156113e957600080fd5b60006113f7858286016112f8565b92505060206114088582860161130d565b9150509250929050565b60006020828403121561142457600080fd5b60006114328482850161130d565b91505092915050565b61144481611f55565b82525050565b61145381611f67565b82525050565b600061146482611ce4565b61146e8185611cef565b935061147e818560208601611faa565b6114878161206d565b840191505092915050565b600061149f602383611cef565b91507f45524332303a207472616e7366657220746f20746865207a65726f206164647260008301527f65737300000000000000000000000000000000000000000000000000000000006020830152604082019050919050565b6000611505602d83611cef565b91507f596f752063616e206f6e6c7920676574207570746f203230204d61676963436f60008301527f696e7320617420612074696d65000000000000000000000000000000000000006020830152604082019050919050565b600061156b602283611cef565b91507f45524332303a206275726e20616d6f756e7420657863656564732062616c616e60008301527f63650000000000000000000000000000000000000000000000000000000000006020830152604082019050919050565b60006115d1602683611cef565b91507f4f776e61626c653a206e6577206f776e657220697320746865207a65726f206160008301527f64647265737300000000000000000000000000000000000000000000000000006020830152604082019050919050565b6000611637602283611cef565b91507f45524332303a20617070726f766520746f20746865207a65726f20616464726560008301527f73730000000000000000000000000000000000000000000000000000000000006020830152604082019050919050565b600061169d601d83611cef565b91507f45524332303a20696e73756666696369656e7420616c6c6f77616e63650000006000830152602082019050919050565b60006116dd600883611cef565b91507f4d47432073656e640000000000000000000000000000000000000000000000006000830152602082019050919050565b600061171d602683611cef565b91507f45524332303a207472616e7366657220616d6f756e742065786365656473206260008301527f616c616e636500000000000000000000000000000000000000000000000000006020830152604082019050919050565b6000611783600e83611cef565b91507f546f6b656e73206275726e65642e0000000000000000000000000000000000006000830152602082019050919050565b60006117c3602083611cef565b91507f4f776e61626c653a2063616c6c6572206973206e6f7420746865206f776e65726000830152602082019050919050565b6000611803602183611cef565b91507f45524332303a206275726e2066726f6d20746865207a65726f2061646472657360008301527f73000000000000000000000000000000000000000000000000000000000000006020830152604082019050919050565b6000611869601983611cef565b91507f4164646974696f6e616c20746f6b656e73206d696e7465642e000000000000006000830152602082019050919050565b60006118a9602583611cef565b91507f45524332303a207472616e736665722066726f6d20746865207a65726f20616460008301527f64726573730000000000000000000000000000000000000000000000000000006020830152604082019050919050565b600061190f602483611cef565b91507f45524332303a20617070726f76652066726f6d20746865207a65726f2061646460008301527f72657373000000000000000000000000000000000000000000000000000000006020830152604082019050919050565b6000611975602583611cef565b91507f45524332303a2064656372656173656420616c6c6f77616e63652062656c6f7760008301527f207a65726f0000000000000000000000000000000000000000000000000000006020830152604082019050919050565b60006119db601f83611cef565b91507f45524332303a206d696e7420746f20746865207a65726f2061646472657373006000830152602082019050919050565b611a1781611f93565b82525050565b611a2681611f9d565b82525050565b6000602082019050611a41600083018461143b565b92915050565b6000602082019050611a5c600083018461144a565b92915050565b60006020820190508181036000830152611a7c8184611459565b905092915050565b60006020820190508181036000830152611a9d81611492565b9050919050565b60006020820190508181036000830152611abd816114f8565b9050919050565b60006020820190508181036000830152611add8161155e565b9050919050565b60006020820190508181036000830152611afd816115c4565b9050919050565b60006020820190508181036000830152611b1d8161162a565b9050919050565b60006020820190508181036000830152611b3d81611690565b9050919050565b60006020820190508181036000830152611b5d81611710565b9050919050565b60006020820190508181036000830152611b7d816117b6565b9050919050565b60006020820190508181036000830152611b9d816117f6565b9050919050565b60006020820190508181036000830152611bbd8161189c565b9050919050565b60006020820190508181036000830152611bdd81611902565b9050919050565b60006020820190508181036000830152611bfd81611968565b9050919050565b60006020820190508181036000830152611c1d816119ce565b9050919050565b6000602082019050611c396000830184611a0e565b92915050565b6000604082019050611c546000830184611a0e565b8181036020830152611c65816116d0565b905092915050565b6000604082019050611c826000830184611a0e565b8181036020830152611c9381611776565b905092915050565b6000604082019050611cb06000830184611a0e565b8181036020830152611cc18161185c565b905092915050565b6000602082019050611cde6000830184611a1d565b92915050565b600081519050919050565b600082825260208201905092915050565b6000611d0b82611f93565b9150611d1683611f93565b9250827fffffffffffffffffffffffffffffffffffffffffffffffffffffffffffffffff03821115611d4b57611d4a61200f565b5b828201905092915050565b6000808291508390505b6001851115611da057808604811115611d7c57611d7b61200f565b5b6001851615611d8b5780820291505b8081029050611d998561207e565b9450611d60565b94509492505050565b6000611db482611f93565b9150611dbf83611f9d565b9250611dec7fffffffffffffffffffffffffffffffffffffffffffffffffffffffffffffffff8484611df4565b905092915050565b600082611e045760019050611ec0565b81611e125760009050611ec0565b8160018114611e285760028114611e3257611e61565b6001915050611ec0565b60ff841115611e4457611e4361200f565b5b8360020a915084821115611e5b57611e5a61200f565b5b50611ec0565b5060208310610133831016604e8410600b8410161715611e965782820a905083811115611e9157611e9061200f565b5b611ec0565b611ea38484846001611d56565b92509050818404811115611eba57611eb961200f565b5b81810290505b9392505050565b6000611ed282611f93565b9150611edd83611f93565b9250817fffffffffffffffffffffffffffffffffffffffffffffffffffffffffffffffff0483118215151615611f1657611f1561200f565b5b828202905092915050565b6000611f2c82611f93565b9150611f3783611f93565b925082821015611f4a57611f4961200f565b5b828203905092915050565b6000611f6082611f73565b9050919050565b60008115159050919050565b600073ffffffffffffffffffffffffffffffffffffffff82169050919050565b6000819050919050565b600060ff82169050919050565b60005b83811015611fc8578082015181840152602081019050611fad565b83811115611fd7576000848401525b50505050565b60006002820490506001821680611ff557607f821691505b602082108114156120095761200861203e565b5b50919050565b7f4e487b7100000000000000000000000000000000000000000000000000000000600052601160045260246000fd5b7f4e487b7100000000000000000000000000000000000000000000000000000000600052602260045260246000fd5b6000601f19601f8301169050919050565b60008160011c9050919050565b61209481611f55565b811461209f57600080fd5b50565b6120ab81611f93565b81146120b657600080fd5b5056fea2646970667358221220edecdf175199e6c98c7ae3d41300e18ed07e886b8156b34e6e81bee5d0b2953164736f6c63430008000033",
  "linkReferences": {},
  "deployedLinkReferences": {}
}